:100000000AC022C021C020C01FC01FC01DC01CC00C
:100010001BC01AC019C011241FBECFEDCDBF10E008
:10002000A0E6B0E0E2EFF0E003C0C89531960D9293
:10003000A036B107D1F710E0A0E6B0E001C01D92F4
:10004000A336B107E1F74FC0DBCF1F920F920FB677
:100050000F9211242F938F939F9380916000992783
:100060000097A1F0019729F58091610090916200BD
:10007000019790936200809361008091610090915C
:100080006200892BB1F41092600013C0809161006E
:10009000909162000196909362008093610080913C
:1000A0006100909162008F5F934019F481E080932A
:1000B000600080916100909162009BBD8ABD9F911C
:1000C0008F912F910F900FBE0F901F90189583E87E
:1000D0008FBD81E08EBD1BBC1ABC88E087BB80E869
:1000E00089BF78940895CFEDD0E0DEBFCDBFEFDFBC
:0200F000FFCF40
:00000001FF
